:020000040800F2
:100000000000022089290008A1250008A725000872
:10001000AD250008B3250008B92500080000000040
:10002000000000000000000000000000BF250008E4
:10003000CD25000800000000DB250008E9250008A8
:10004000D9290008D9290008D9290008D929000888
:10005000D9290008D9290008D9290008D929000878
:10006000D9290008D9290008D9290008D929000868
:10007000D9290008D9290008D9290008D929000858
:10008000D9290008D9290008D9290008D929000848
:10009000D9290008D9290008D9290008D929000838
:1000A000D9290008D9290008D9290008D929000828
:1000B000F5250008D929000809260008D9290008D3
:1000C000D9290008D9290008D9290008D929000808
:1000D000D9290008D9290008D9290008D9290008F8
:1000E000D9290008D9290008D9290008D9290008E8
:1000F000D9290008D9290008D9290008D9290008D8
:10010000D9290008D9290008D9290008D9290008C7
:10011000D9290008D9290008D9290008D9290008B7
:10012000D9290008D9290008D9290008D9290008A7
:10013000D9290008D9290008D9290008D929000897
:10014000D9290008D9290008D9290008D929000887
:10015000D9290008D9290008D9290008D929000877
:10016000D9290008D9290008D9290008D929000867
:10017000D9290008D9290008D92900080000000061
:08018000D9290008D929000863
:1001900010B5054C237833B9044B13B10448AFF3C1
:1001A00000800123237010BD7800002000000000B3
:1001B0006C60000808B5034B1BB103490348AFF35B
:1001C000008008BD000000007C0000206C6000087A
:1001D00001F0FF01102A2BDB10F0070F08D010F8F8
:1001E000013B013A8B422DD010F0070F42B3F6D1FC
:1001F000F0B441EA012141EA014122F007047FF015
:1002000000070023F0E80256083C85EA010586EA6B
:10021000010685FA47F5A3FA87F586FA47F6A5FAA7
:1002200087F68EB9EED1F0BC01F0FF0102F00702B3
:1002300032B110F8013B013A83EA010313B1F8D15E
:100240000020704701387047002D06BF354603383F
:10025000073815F0010F07D1013015F4807F02BF78
:10026000013015F4C03F0130F0BC0138704700BFC9
:1002700053B94AB9002908BF00281CBF4FF0FF310D
:100280004FF0FF3000F070B9ADF1080C6DE904CE0D
:1002900000F006F8DDF804E0DDE9022304B0704761
:1002A0002DE9F047089E0D4604460F46002B4AD123
:1002B0008A42944665D9B2FA82F343B102FA03FC4A
:1002C000C3F120029F4020FA02F217439C404FEAFC
:1002D0001C4E1FFA8CF5B7FBFEF1220C0EFB1177BA
:1002E00042EA074201FB05F090420AD91CEB0202E8
:1002F00001F1FF3780F01C81904240F219810239F0
:100300006244121AA4B2B2FBFEF00EFB102244EAC1
:10031000024400FB05F5A5420AD91CEB040400F1D8
:10032000FF3280F00781A54240F204816444023824
:1003300040EA0140641B00211EB1DC400023C6E9F5
:100340000043BDE8F0878B4208D9002E00F0ED8015
:100350000021C6E900050846BDE8F087B3FA83F13D
:10036000002949D1AB4202D3824200F2F880841ABC
:1003700065EB030201201746002EE2D0C6E90047D4
:10038000DFE702B9FFDEB2FA82F3002B40F0908083
:100390008A1A4FEA1C471FFA8CFE0121B2FBF7F5BF
:1003A00007FB1520220C42EA00420EFB05F09042AA
:1003B00008D91CEB020205F1FF3802D2904200F28C
:1003C000CB804546121AA4B2B2FBF7F007FB10220D
:1003D00044EA02440EFB00FEA64508D91CEB0404C7
:1003E00000F1FF3202D2A64500F2BB801046A4EB1A
:1003F0000E0440EA05409FE7C1F120078B4022FA36
:1004000007FC4CEA030C05FA01F420FA07F3FD405F
:100410004FEA1C492343B5FBF9F81FFA8CFE09FB90
:1004200018551C0C44EA054408FB0EF5A54202FAD7
:1004300001F200FA01F00BD91CEB040408F1FF3AB9
:1004400080F08880A54240F28580A8F102086444CB
:10045000641B9DB2B4FBF9F309FB134445EA044461
:1004600003FB0EFEA64508D91CEB040403F1FF357F
:100470006CD2A6456AD9023B644443EA0843A3FB15
:100480000295A4EB0E04AC42C846AE4656D353D0F8
:1004900056B1B0EB080264EB0E0404FA07F7CA4049
:1004A000CC401743C6E9007418460021BDE8F08728
:1004B000C3F1200102FA03FC20FA01F225FA01F14E
:1004C0009D402A434FEA1C471FFA8CFEB1FBF7F010
:1004D00007FB1015110C41EA054100FB0EF58D429A
:1004E00004FA03F408D91CEB010100F1FF382FD204
:1004F0008D422DD902386144491B92B2B1FBF7F508
:1005000007FB151142EA014205FB0EF1914208D9A1
:100510001CEB020205F1FF3816D2914214D9023DBC
:100520006244521A45EA004138E73146304608E74E
:100530003946E6E61046FBE64845A9D2B9EB020883
:1005400065EB0C0E013BA3E74546EAE72B4694E733
:100550004046D1E7D0467BE7023D624432E7084699
:100560000AE76444023842E7704700BF80B500AF35
:1005700001220821024802F075FD00BF80BD00BFC6
:10058000000C024080B584B000AF002208212F4843
:1005900002F068FD012208212C4802F063FD0A23C5
:1005A00002222B492B4803F0A0FB0023FB604FF4F1
:1005B00000437B8100237B603FE07B68002B06DBF0
:1005C0007B68032B03DC7B680433FB6018E07B68EB
:1005D000032B07DD7B68072B04DC7B68C3F1070373
:1005E000FB600DE07B68072B06DD7B680B2B03DCD3
:1005F0007B680433FB6003E07B68C3F11703FB6097
:10060000134B1A887B8913409BB2002B05D0124AEA
:10061000FB68002122F8131009E00F4AFB6832F84A
:100620001330013399B20C4AFB6822F813107B890E
:100630005B087B817B6801337B607B680F2BBCDDB3
:1006400000BF00BF1037BD4680BD00BF000C024098
:10065000B40000209C0100209400002080B58EB0E2
:1006600000AF07F11C0300221A605A609A60DA603A
:100670001A615A619A613B4600221A605A609A6078
:10068000DA601A615A619A612F4B4FF020421A606A
:100690002D4B2E4A5A602C4B00229A602A4B002286
:1006A000DA60294B00221A61274B10225A61264B2F
:1006B00000229A61244B0022DA61234B00221A6245
:1006C000214B00225A62204B4FF480529A621E4BFB
:1006D0000022DA621C4B4FF480421A631A4B00224C
:1006E0005A63194B00229A63174B00225A640F2356
:1006F000FB610F233B623C237B620023BB62102320
:10070000FB6211233B6300237B6308233B600F23C1
:100710007B600923BB600023FB6010233B61112336
:100720007B610023BB613A4607F11C03194606486A
:1007300003F0BEFE0346002B01D001F0B5F800BF68
:100740003837BD4680BD00BFB8000020040100A0BE
:1007500080B586B000AF3B1D00221A605A609A60D7
:10076000DA601A611C4B1B68002B31D11A4B012235
:100770001A6000233B60194B9B6B184A43F001033E
:100780009363164B9B6B03F001033B603B684FF692
:1007900088737B600223BB600023FB6003233B6103
:1007A0000C237B613B1D19460D4802F0BFFA4CF249
:1007B000B3737B600223BB600023FB6003233B61B8
:1007C0000C237B613B1D1946064802F0AFFA00E09E
:1007D00000BF1837BD4680BD080100200038024028
:1007E00000100240000C024080B582B000AF78607B
:1007F000FFF7AEFF00BF0837BD4680BD80B58CB0A7
:1008000000AF07F11C0300221A605A609A60DA6098
:100810001A610023BB616F4B1B6B6E4A43F01003E0
:1008200013636C4B1B6B03F01003BB61BB690023AC
:100830007B61684B1B6B674A43F004031363654B92
:100840001B6B03F004037B617B6900233B61614BFD
:100850001B6B604A43F0800313635E4B1B6B03F01A
:1008600080033B613B690023FB605A4B1B6B594A79
:1008700043F001031363574B1B6B03F00103FB6051
:10088000FB680023BB60534B1B6B524A43F00803C9
:100890001363504B1B6B03F00803BB60BB68002362
:1008A0007B604C4B1B6B4B4A43F040031363494B3B
:1008B0001B6B03F040037B607B6800233B60454B70
:1008C0001B6B444A43F002031363424B1B6B03F060
:1008D00002033B603B68002270213F4802F0C2FBEC
:1008E00000224FF400513D4802F0BCFB00224021A1
:1008F0003B4802F0B7FB00224FF48071394802F008
:10090000B1FB00220821384802F0ACFB7023FB61E8
:1009100001233B6200237B620023BB6207F11C03BF
:1009200019462D4802F002FA4FF40053FB610123EF
:100930003B6200237B620023BB6207F11C03194664
:10094000264802F0F3F9C023FB6100233B62002339
:100950007B6207F11C031946224802F0E7F93023B5
:10096000FB6100233B6200237B6207F11C031946F5
:100970001A4802F0DBF94023FB6101233B620023AC
:100980007B620023BB6207F11C031946144802F086
:10099000CDF94FF48073FB6101233B6200237B623E
:1009A0000023BB6207F11C0319460E4802F0BEF992
:1009B0000823FB6101233B6200237B620023BB62AF
:1009C00007F11C031946084802F0B0F900BF3037A0
:1009D000BD4680BD003802400010024000080240C1
:1009E0000018024000000240000C024080B483B0B6
:1009F00000AF0346FB80044AFB88138000BF0C371E
:100A0000BD465DF8047B7047FEFF0F6080B483B085
:100A100000AF0346FB80044AFB88538000BF0C37BD
:100A2000BD465DF8047B7047FEFF0F6080B483B065
:100A300000AF064B5B889BB2FB80FB889BB21846DD
:100A40000C37BD465DF8047B704700BFFEFF0F60AA
:100A500090B583B000AF0446084611461A462346B7
:100A6000FB800346BB800B467B8013463B802A20DD
:100A7000FFF7BCFFFB881B0A9BB21846FFF7C6FFB7
:100A8000FB88DBB29BB21846FFF7C0FF7B881B0ACE
:100A90009BB21846FFF7BAFF7B88DBB29BB21846C1
:100AA000FFF7B4FF2B20FFF7A1FFBB881B0A9BB207
:100AB0001846FFF7ABFFBB88DBB29BB21846FFF7C7
:100AC000A5FF3B881B0A9BB21846FFF79FFF3B8898
:100AD000DBB29BB21846FFF799FF2C20FFF786FF89
:100AE00000BF0C37BD4690BD80B584B000AF034653
:100AF000FB80154B1B88013B9AB2134B5B88013B73
:100B00009BB200210020FFF7A3FF0023FB8111E02F
:100B10000023BB8106E0FB881846FFF777FFBB89FF
:100B20000133BB81084B5B88BA899A42F3D3FB89B6
:100B30000133FB81044B1B88FA899A42E8D300BF3A
:100B400000BF1037BD4680BD0C01002090B585B0B8
:100B500000AF0446084611461A462346FB8003466A
:100B6000BB800B467B8013463B807B88013B9AB25F
:100B70003B88013B9BB2B988F888FFF769FFBB88C7
:100B8000FB8110E0FB88BB8106E03B8C1846FFF739
:100B90003DFFBB890133BB81BA897B889A42F4D37C
:100BA000FB890133FB81FA893B889A42EAD300BF73
:100BB00000BF1437BD4690BD80B582B000AF03467C
:100BC000FB800B46BB8013467B80BB88FA88B988C4
:100BD000F888FFF73DFF7B881846FFF717FF00BF37
:100BE0000837BD4680BD90B58DB000AF04460846BD
:100BF00011461A462346FB800346BB800B467B808A
:100C000013463B800023BB6200237B627A88FB880B
:100C1000D31A3B623A88BB88D31AFB61FB88FB601E
:100C2000BB88BB603B6A002B02DD01237B610BE0CC
:100C30003B6A002B02D100237B6105E04FF0FF33BC
:100C40007B613B6A5B423B62FB69002B02DD012357
:100C50003B610BE0FB69002B02D100233B6105E007
:100C60004FF0FF333B61FB695B42FB613A6AFB6912
:100C70009A4202DD3B6ABB6101E0FB69BB61002374
:100C8000FB852BE0FB689BB2BA6891B2B7F84020B5
:100C90001846FFF791FFBA6A3B6A1344BB627A6A4F
:100CA000FB6913447B62BA6ABB699A4207DDBA6A80
:100CB000BB69D31ABB62FA687B691344FB607A6A2A
:100CC000BB699A4207DD7A6ABB69D31A7B62BA684C
:100CD0003B691344BB60FB8D0133FB85FB8DBA6917
:100CE0009A42CFDA00BF00BF3437BD4690BD90B501
:100CF00085B002AF0446084611461A462346FB80DB
:100D00000346BB800B467B8013463B80BC887A88B9
:100D1000B988F8883B8B00932346FFF764FF3C8833
:100D2000FA88B988F8883B8B00932346FFF75BFF6E
:100D30003C887A883988F8883B8B00932346FFF7F4
:100D400052FF3C887A88B98878883B8B0093234689
:100D5000FFF749FF00BF0C37BD4690BD90B587B087
:100D600000AF0446084611461A462346FB80034658
:100D7000BB800B46FB7013463B8000237B75FB88D2
:100D80003B8297F82C305B08FB73FB7BDB08DBB204
:100D90001A46FB7B03F00703DBB2002B14BF0123D1
:100DA0000023DBB213449AB297F82C309BB212FBAB
:100DB00003F3BB81FB78203BFB70FB7B9AB2FB8883
:100DC00013449BB2013B9CB297F82C309AB2BB887B
:100DD00013449BB2013B9BB2B988F8882246FFF7C7
:100DE00037FE00237B827AE097F82C300C2B28D03A
:100DF00097F82C30102B08D1FA787B8A3C491201E5
:100E00000A4413441B78FB751BE097F82C30182B11
:100E10000BD1FA78798A374813465B0013441B01DB
:100E200003440B441B78FB750BE097F82C30202B08
:100E30005AD1FA787B8A304992010A4413441B78CC
:100E4000FB750023BB7544E097F83030002B20D1B0
:100E5000FA7DBB7D42FA03F303F00103002B04D0BB
:100E60003B881846FFF7D2FD03E03B8D1846FFF79D
:100E7000CDFD7B7D01337B757B7DFA7BB3FBF2F18E
:100E800001FB02F29B1ADBB2002B1FD100237B7502
:100E900022E0FA7DBB7D42FA03F303F00103002B4D
:100EA00005D03A88B988FB881846FFF785FEFB888D
:100EB0000133FB80FA883B8AD21AFB7B9A4205D128
:100EC0003B8AFB80BB880133BB8005E0BB7D0133DF
:100ED000BB75BB7D072BB7D97B8A01337B827A8AAE
:100EE000BB899A4280D300E000BF1C37BD4690BD4D
:100EF000B4600008A46600087478000880B485B067
:100F000000AF03460A46FB711346BB710123FB6029
:100F100004E0FA79FB6802FB03F3FB60BB795A1E1D
:100F2000BA71002BF5D1FB6818461437BD465DF841
:100F3000047B704790B589B004AF0446084611465B
:100F40001A462346FB800346BB800B467B80134634
:100F50007B700023BB7397F828305B087B730023FA
:100F6000FB7359E07C887A78FB7BD31ADBB2013BB8
:100F7000DBB219460A20FFF7C1FF0346B4FBF3F1C9
:100F80002A4BA3FB0123DA0813469B0013445B00A2
:100F9000CA1A13463B73BB7B002B21D1FA7B7B78AB
:100FA000013B9A421CDA3B7B002B17D1FB7B9AB2A8
:100FB0007B7B9BB212FB03F39AB2FB88134498B27B
:100FC0003A8CB9880023029397F828300193BB8CA0
:100FD000009313462022FFF7C1FE1AE00123BB73E2
:100FE000FB7B9AB27B7B9BB212FB03F39AB2FB882A
:100FF000134498B23B7B3033DAB23C8CB98800237F
:10100000029397F828300193BB8C00932346FFF797
:10101000A5FEFB7B0133FB73FA7B7B789A42A1D35D
:1010200000BF00BF1437BD4690BD00BFCDCCCCCCB7
:1010300080B483B000AF0346FB71FB791B09DBB2C0
:1010400003F00303DBB2002B07D00A4B4FF4A0726E
:101050001A80084BF0225A8006E0064BF0221A80D4
:10106000044B4FF4A0725A8000BF0C37BD465DF8A8
:10107000047B70470C01002080B500AF00224FF4C4
:101080000051AA4801F0EEFF4FF4FA7001F018FD8C
:1010900001224FF40051A54801F0E4FF4FF4FA702B
:1010A00001F00EFD0020FFF7C3FFD320FFF79EFCE9
:1010B000FFF7BCFC03461A469D4B9A80FFF7B6FC2F
:1010C00003461A469A4B9A80FFF7B0FC03461A462D
:1010D000974B9A80964B9B881B029AB2944B9A80AE
:1010E000FFF7A4FC03461A46914B9B8813439AB220
:1010F0008F4B9A80CF20FFF779FC0020FFF786FC0A
:10110000C120FFF783FC3020FFF780FCED20FFF7C4
:101110006DFC6420FFF77AFC0320FFF777FC1220B8
:10112000FFF774FC8120FFF771FCE820FFF75EFCFD
:101130008520FFF76BFC1020FFF768FC7A20FFF793
:1011400065FCCB20FFF752FC3920FFF75FFC2C2019
:10115000FFF75CFC0020FFF759FC3420FFF756FC3A
:101160000220FFF753FCF720FFF740FC2020FFF799
:101170004DFCEA20FFF73AFC0020FFF747FC002077
:10118000FFF744FCC020FFF731FC1B20FFF73EFCBB
:10119000C120FFF72BFC0120FFF738FCC520FFF72B
:1011A00025FC3020FFF732FC3020FFF72FFCC72052
:1011B000FFF71CFCB720FFF729FC3620FFF716FCD1
:1011C0000820FFF723FC3A20FFF710FC5520FFF71B
:1011D0001DFCB120FFF70AFC0020FFF717FC1A20C6
:1011E000FFF714FCB620FFF701FC0A20FFF70EFC06
:1011F000A220FFF70BFCF220FFF7F8FB0020FFF71F
:1012000005FC2620FFF7F2FB0120FFF7FFFBE020A3
:10121000FFF7ECFB0F20FFF7F9FB2A20FFF7F6FBA7
:101220002820FFF7F3FB0820FFF7F0FB0E20FFF765
:10123000EDFB0820FFF7EAFB5420FFF7E7FBA920AE
:10124000FFF7E4FB4320FFF7E1FB0A20FFF7DEFB9B
:101250000F20FFF7DBFB0020FFF7D8FB0020FFF794
:10126000D5FB0020FFF7D2FB0020FFF7CFFBE120EA
:10127000FFF7BCFB0020FFF7C9FB1520FFF7C6FBFB
:101280001720FFF7C3FB0720FFF7C0FB1120FFF774
:10129000BDFB0620FFF7BAFB2B20FFF7B7FB56205C
:1012A000FFF7B4FB3C20FFF7B1FB0520FFF7AEFBD7
:1012B0001020FFF7ABFB0F20FFF7A8FB3F20FFF745
:1012C000A5FB3F20FFF7A2FB0F20FFF79FFB2B2082
:1012D000FFF78CFB0020FFF799FB0020FFF796FB40
:1012E0000120FFF793FB3F20FFF790FB2A20FFF739
:1012F0007DFB0020FFF78AFB0020FFF787FB002023
:10130000FFF784FBEF20FFF781FB1120FFF76EFB57
:10131000782001F0D5FB2920FFF768FB01224FF46C
:101320008071044801F09EFE00BF80BD00080240AD
:101330000C0100200000024080B584B000AFF860CE
:10134000B9607A603B60FB689AB27B689BB21344D9
:1013500098B2BB689AB23B689BB213449BB23A8B7B
:101360001946FFF729FCFB689AB27B689BB2D31A37
:1013700098B2BB689AB23B689BB213449BB23A8B5B
:101380001946FFF719FCFB689AB27B689BB21344BD
:1013900098B2BB689AB23B689BB2D31A9BB23A8BA5
:1013A0001946FFF709FCFB689AB27B689BB2D31A17
:1013B00098B2BB689AB23B689BB2D31A9BB23A8B85
:1013C0001946FFF7F9FBFB689AB23B689BB21344DE
:1013D00098B2BB689AB27B689BB213449BB23A8BBB
:1013E0001946FFF7E9FBFB689AB23B689BB2D31A38
:1013F00098B2BB689AB27B689BB213449BB23A8B9B
:101400001946FFF7D9FBFB689AB23B689BB21344BD
:1014100098B2BB689AB27B689BB2D31A9BB23A8BE4
:101420001946FFF7C9FBFB689AB23B689BB2D31A17
:1014300098B2BB689AB27B689BB2D31A9BB23A8BC4
:101440001946FFF7B9FB00BF1037BD4680BD80B518
:101450008AB002AFF860B9603B601346FB8000239E
:10146000FB613B68BB613B685B00C3F103033B610D
:10147000BB6A002B4FD029E0FB697B610AE0FB8847
:1014800000937B69FA69B968F868FFF755FF7B69D3
:1014900001337B617A69BB699A42F0DD3B69002BBD
:1014A00006DAFB699A003B69134406333B610AE0A4
:1014B000FA69BB69D31A9A003B6913440A333B614A
:1014C000BB69013BBB61FB690133FB61FA69BB6925
:1014D0009A42D1DD23E0FB880093BB69FA69B968C1
:1014E000F868FFF729FF3B69002B06DAFB699A00D1
:1014F0003B69134406333B610AE0FA69BB69D31ABE
:101500009A003B6913440A333B61BB69013BBB61F1
:10151000FB690133FB61FA69BB699A42DBDD00BFFD
:101520002037BD4680BD000090B58BB004AFBA60D7
:101530001A460346FB810B46BB811346FB80FB89A1
:10154000BB820023FB7548E0FB7D002B45D1FA8967
:10155000264B1B88194697F82C305B08DBB2CB1A58
:101560009A423FDCBA89214B5B88194697F82C30A8
:10157000CB1A9A4236DCBB681B78802B02D9012338
:10158000FB752AE0BB681B780D2B0BD197F82C302C
:101590009AB2BB891344BB81BB8AFB81BB68013310
:1015A000BB6017E0BB681A78FC88B989F88997F89E
:1015B0003030029397F82C3001933B8D00932346F3
:1015C000FFF7CCFB97F82C305B08DBB29AB2FB89B3
:1015D0001344FB81BB680133BB60BB681B78002BE5
:1015E000B2D100E000BF1C37BD4690BD0C01002009
:1015F00080B500AF01224021024801F033FD00BF59
:1016000080BD00BF0018024080B500AF3F4B1B8873
:10161000DBB29AB23D4B1A803D4B1B881A463D4BBC
:101620009B5C1B021AB2394B1B881BB213431BB2C3
:101630009AB2364B1A80364B1B88032B46D801A230
:1016400052F823F05516000873160008911600088A
:10165000AF1600082D4B1B8843F0B0039AB22B4BFA
:101660001A802A4B1B8823F040039AB2274B1A801A
:101670002DE0264B1B8843F0D0039AB2234B1A80EF
:10168000224B1B8823F020039AB2204B1A801EE0C5
:101690001E4B1B8843F0E0039AB21C4B1A801B4B75
:1016A0001B8823F010039AB2184B1A800FE0174BD7
:1016B0001B8843F070039AB2144B1A80134B1B889B
:1016C00023F080039AB2114B1A8000E000BF104B48
:1016D0001B8801335A4203F0030302F0030258BF90
:1016E00053429AB20A4B1A80002240210A4801F064
:1016F000B9FC012302220549084802F0BAF9012287
:101700004021054801F0AEFC00BF80BD0E00002066
:101710001201002000000020001802409C0100205F
:1017200080B485B000AFF860B9601346FB71FB6808
:10173000002B0EDBFB68092B0BDC094AFB6813440A
:101740001A78FB79D31AD9B2064ABB6813440A4601
:101750001A7000BF1437BD465DF8047B704700BFA8
:10176000040000200000002080B500AF01F036F931
:1017700000F01AF8FFF742F801F028F801F072F8CB
:1017800000F068FEFEF76AFF00F078F8054B1B7862
:10179000002BFBD0034B00221A70FEF7F3FE00F083
:1017A00043F9F3E78E01002080B594B000AF07F154
:1017B000200330220021184603F081FD07F10C03BD
:1017C00000221A605A609A60DA601A610023BB60D6
:1017D000284B1B6C274A43F080531364254B1B6C2A
:1017E00003F08053BB60BB6800237B60224B1B6807
:1017F000214A43F4804313601F4B1B6803F480436A
:101800007B607B6802233B620123FB6210233B6306
:101810000223BB630023FB6308233B64A8237B6490
:101820000223BB640423FB6407F12003184601F084
:1018300033FC0346002B01D000F036F80F23FB6089
:1018400002233B6100237B614FF4A053BB614FF443
:10185000A053FB6107F10C030521184601F094FE2B
:101860000346002B01D000F01FF800BF5037BD46E3
:1018700080BD00BF003802400070004080B500AF5E
:10188000FEF774FEFFF7B4FEFFF7F6FB00F04AFD2B
:10189000322000F05BFD00F04FFD012000F072FDF2
:1018A00000F008F800BF80BD80B400AF72B600BF82
:1018B000FEE7000080B586B004AF4FF6FF70FFF77B
:1018C00013F900230093DC23DC2214211420FFF7FA
:1018D0000EFA00230293102301934FF6FF73009337
:1018E00000234C4AE6211420FFF71EFE002302933A
:1018F000102301934FF6FF7300930023464AFA2109
:101900001420FFF711FE002200210020FFF708FF3E
:10191000002201210020FFF703FF00220221002006
:10192000FFF7FEFE002203210020FFF7F9FE00234F
:10193000FB711DE00023BB7114E0FA79B9793748D7
:1019400013469B0013445B0003440B4401221A70AE
:10195000B979FB794BF64042184600F023FCBB797D
:101960000133BB71BB79092BE7D9FB790133FB71DB
:10197000FB79092BDED92A4B04221A71284B052248
:101980009A70274B0522DA70254B05221A70244BDA
:1019900005225A70224B00229A60214B1B7819466F
:1019A0001F4B5B7818461D4A0B469B000B445B009F
:1019B0001344034400221A70194B1B78184A5178BB
:1019C0004FF6E072184600F027FC002003F080FC80
:1019D00002460B461346184603F000FB114B01224A
:1019E0001A71104B02229A700E4B0222DA700D4BC4
:1019F00002221A700B4B02225A700A4B1B78094ABA
:101A000051784FF47842184600F029FC00BF08379F
:101A1000BD4680BD84600008A06000082801002049
:101A2000140100202001002080B500AF0F4B1B786F
:101A30005A1C0F4B83FB02135910D317C91A0B46BC
:101A40009B000B44D11ACAB2084B1A7000F024F95B
:101A5000064B1B78002B07D100F044F900F032FB55
:101A600000F08CF800F006F800BF80BD8C0100206B
:101A70006766666680B584B004AF3C4B9B783B4A92
:101A8000D1784FF6FF72184600F0C6FB384B9B78B2
:101A9000374AD1784FF6FF72184600F0E0FB344B1E
:101AA0009B781946324BDB781846324A0B469B002E
:101AB0000B445B00134403441B78012B08D12C4BCF
:101AC0009B782B4AD1784BF64042184600F06AFBCF
:101AD000264B1B78254A51784FF6E072184600F0E5
:101AE0009BFB234B1B78224A51784FF478421846CF
:101AF00000F0B5FB1D4B9B689AB2102302934FF682
:101B0000FF7301934FF4784300930323FA2150208D
:101B1000FFF710FA002200210020FFF701FE00224B
:101B200001210020FFF7FCFD104B9B68124A82FB4D
:101B300003129210DB17D31A002202211846FFF776
:101B4000EFFD0A4B9A680C4B83FB02139910D317D5
:101B5000C81A03469B0003445B00D01A00220321ED
:101B6000FFF7DEFD00BFBD4680BD00BF14010020B1
:101B700020010020280100206766666680B584B0D9
:101B800004AF404B1A78404B1B789A4205D13D4B2D
:101B90005A783D4B5B789A4217D03A4B1A783A4BB9
:101BA0009B789A422AD1374B5A78374BDB789A4246
:101BB00024D1344B9A78344B1B789A421ED1314B46
:101BC000DA78314B5B789A4218D14FF6FF70FEF706
:101BD0008BFF00230293202301934FF6FF730093A2
:101BE0004FF47843294AA0215820FFF79DFC4FF479
:101BF0007A7000F065FFFFF75DFE40E0214B9B68C7
:101C0000632B18D14FF6FF70FEF76EFF002302938F
:101C1000202301934FF6FF7300934FF478431C4A3F
:101C2000A0215820FFF780FC4FF47A7000F048FFA5
:101C3000FFF740FE23E0134B1B781946114B5B78EE
:101C40001846144A0B469B000B445B0013440344A4
:101C50001B78012B13D10B4B1B781946094B5B7872
:101C600018460C4A0B469B000B445B00134403448C
:101C700000221A70034B9B680133024A9360BD46F1
:101C800080BD00BF1401002020010020A8600008D2
:101C9000B06000082801002080B500AF00F002FB12
:101CA0000346002B02D00E4B00221A7100F00AFBF3
:101CB0000346002B02D00A4B01221A7100F012FBDE
:101CC0000346002B02D0064B02221A7100F01AFBC9
:101CD0000346002B02D0024B03221A7100BF80BDC5
:101CE0001401002080B500AFFFF7D6FF3E4B1B79F3
:101CF000042B72D801A252F823F000BF111D000876
:101D00003F1D00086D1D00089B1D0008C91D00082F
:101D1000354B5B78002B03D1334B04221A7160E002
:101D2000314B1A78304B9A702F4B5A782E4BDA7011
:101D30002D4B5B78013BDAB22B4B5A7051E02A4BAA
:101D40005B78092B03D1284B04221A7149E0264BFA
:101D50001A78254B9A70244B5A78234BDA70224B11
:101D60005B780133DAB2204B5A703AE01E4B1B7895
:101D7000002B03D11C4B04221A7132E01A4B1A7843
:101D8000194B9A70184B5A78174BDA70164B1B7810
:101D9000013BDAB2144B1A7023E0134B1B78092B6A
:101DA00003D1114B04221A711BE00F4B1A780E4B12
:101DB0009A700D4B5A780C4BDA700B4B1B78013331
:101DC000DAB2094B1A700CE0074B1A78064B9A707E
:101DD000054B5A78044BDA7003E0034B04221A7166
:101DE00000BF00BF80BD00BF1401002080B500AF60
:101DF00003F022F903465A4203F0030302F0030200
:101E000058BF5342DAB29A4B1A709A4B1B79032B84
:101E100000F2448101A252F823F000BF2D1E0008F9
:101E2000C71E0008611F0008FB1F0008914B5B786C
:101E3000002B40F035818F4B1B78002B16D10CE026
:101E400003F0FAF803465A4203F0030302F00302D8
:101E500058BF5342DAB2864B1A70854B1B78002B61
:101E6000EED0834B1B78022BEAD019E1814B1B7813
:101E7000092B23D10CE003F0DFF803465A4203F0AC
:101E8000030302F0030258BF5342DAB2784B1A70D0
:101E9000774B1B78002BEED0754B1B78032BEAD0C9
:101EA000FEE003F0C9F803465A4203F0030302F0D0
:101EB000030258BF5342DAB26D4B1A706C4B1B7859
:101EC000002BEED0ECE06B4B5B78092B40F0EA8006
:101ED000684B1B78002B16D10CE003F0ADF80346DD
:101EE0005A4203F0030302F0030258BF5342DAB22E
:101EF0005F4B1A705E4B1B78012BEED05C4B1B784E
:101F0000022BEAD0CEE05B4B1B78092B23D10CE0EF
:101F100003F092F803465A4203F0030302F003026F
:101F200058BF5342DAB2524B1A70514B1B78012BF7
:101F3000EED04F4B1B78032BEAD0B3E003F07CF8D4
:101F400003465A4203F0030302F0030258BF534210
:101F5000DAB2474B1A70464B1B78012BEED0A1E04A
:101F6000444B1B78002B40F09F80424B5B78002B4A
:101F700016D10CE003F060F803465A4203F0030365
:101F800002F0030258BF5342DAB2394B1A70384B91
:101F90001B78022BEED0364B1B78002BEAD083E067
:101FA000344B5B78092B23D10CE003F045F8034652
:101FB0005A4203F0030302F0030258BF5342DAB25D
:101FC0002B4B1A702A4B1B78022BEED0284B1B7818
:101FD000012BEAD068E003F02FF803465A4203F0E1
:101FE000030302F0030258BF5342DAB2204B1A70C7
:101FF0001F4B1B78022BEED056E01E4B1B78092B93
:1020000054D11C4B5B78002B16D10CE003F014F874
:1020100003465A4203F0030302F0030258BF53423F
:10202000DAB2134B1A70124B1B78032BEED0104B05
:102030001B78002BEAD039E00E4B5B78092B28D1B6
:102040000CE002F0F9FF03465A4203F0030302F0EA
:10205000030258BF5342DAB2054B1A70044B1B7887
:10206000032BEED0024B1B78012BEAD01EE000BF01
:102070008D0100202001002002F0DEFF03465A42BD
:1020800003F0030302F0030258BF5342DAB20B4BD2
:102090001A700A4B1B78032BEED007E000BF06E056
:1020A00000BF04E000BF02E000BF00E000BF034B40
:1020B0001A78034B1A7100BF80BD00BF8D0100204C
:1020C0002001002080B500AFFFF790FE344B1B7954
:1020D000032B57D801A252F823F000BFED200008CF
:1020E00013210008392100085F2100082C4B1A78C1
:1020F0002B4B9A702A4B5A78294BDA70284B5B7815
:10210000002B43D0264B5B78013BDAB2244B5A704C
:102110003CE0234B1A78224B9A70214B5A78204B83
:10212000DA701F4B5B78082B32D81D4B5B7801337C
:10213000DAB21B4B5A702BE0194B1A78184B9A7075
:10214000174B5A78164BDA70154B1B78002B21D0A1
:10215000134B1B78013BDAB2114B1A701AE0104B8B
:102160001A780F4B9A700E4B5A780D4BDA700C4B55
:102170001B78082B10D80A4B1B780133DAB2084BB6
:102180001A7009E0064B00221A7106E000BF04E055
:1021900000BF02E000BF00E000BF00BF80BD00BF85
:1021A0002001002090B585B002AF0346FB710B46BD
:1021B000BB711346BB80FB7901339BB21A46920078
:1021C00013449B009BB2063398B2BB7901339BB298
:1021D0001A46920013449B009BB2063399B2FB79D6
:1021E00001339BB21A46920013449B009BB20E33FC
:1021F0009AB2BB7901339BB21C46A40023449B00D6
:102200009BB20E339CB2BB8800932346FEF79EFC24
:1022100000BF0C37BD4690BD80B584B002AF034609
:10222000FB710B46BB711346BB80FB795A1C1346EE
:102230009B0013449B0003F10A00BB795A1C134610
:102240009B0013449B0003F10A01BA880123009309
:102250000923FFF7FCF800BF0837BD4680BD80B5F5
:1022600084B002AF0346FB710B46BB711346BB80C3
:10227000FB795A1C13469B0013449B0003F10A0090
:10228000BB795A1C13469B0013449B0003F10A01BF
:10229000BA88012300930923FFF7D9F800BF083754
:1022A000BD4680BD80B400AF054B5B88002B01D0DC
:1022B000012300E000231846BD465DF8047B70470B
:1022C0009400002080B400AF054B5B8A002B01D046
:1022D000012300E000231846BD465DF8047B7047EB
:1022E0009400002080B400AF054B1B89002B01D067
:1022F000012300E000231846BD465DF8047B7047CB
:102300009400002080B400AF054B9B89002B01D0C6
:10231000012300E000231846BD465DF8047B7047AA
:102320009400002080B500AF024802F055F900BFCC
:1023300080BD00BFF801002080B500AF024802F068
:102340004BF900BF80BD00BF4002002080B483B0C5
:1023500000AF78607B689AB2074B1A80064B1A88E8
:10236000064B1A80064B00221A7000BF0C37BD4680
:102370005DF8047B704700BF9201002090010020AF
:102380008E01002080B483B000AF78607B689AB281
:10239000074B1A80064B1A88064B1A80064B002200
:1023A0001A7000BF0C37BD465DF8047B704700BF54
:1023B00098010020960100209401002080B582B091
:1023C00000AF78607B681B68B3F1804F14D11A4B63
:1023D0001B88002B10D0184B1B88013B9AB2164B60
:1023E0001A80154B1B88002B06D1144B01221A7042
:1023F000134B1A88104B1A807B681B68114A934252
:1024000016D1114B1B88002B10D00F4B1B88013BA2
:102410009AB20D4B1A800C4B1B88002B06D10B4B2C
:1024200001221A700A4B1A88074B1A80FFF7ECF842
:1024300000BF0837BD4680BD900100208E010020FE
:102440009201002000080040960100209401002025
:102450009801002080B500AF174B184A1A60164B40
:102460004FF482725A60144B00229A60124B002281
:10247000DA60114B00221A610F4B00225A610E4B99
:102480004FF400729A610C4B0022DA610A4B002271
:102490001A62094B00225A62074B00229A62064BCD
:1024A0000A22DA62044801F05BFA0346002B01D0ED
:1024B000FFF7FAF900BF80BD9C0100200030014009
:1024C00080B58AB000AF786007F1140300221A606B
:1024D0005A609A60DA601A617B681B68194A9342F5
:1024E0002BD100233B61184B5B6C174A43F480539C
:1024F0005364154B5B6C03F480533B613B690023D1
:10250000FB60114B1B6B104A43F0020313630E4B2D
:102510001B6B03F00203FB60FB6838237B61022323
:10252000BB610023FB6103233B6205237B6207F150
:1025300014031946054800F0F9FB00BF2837BD46D3
:1025400080BD00BF0030014000380240000402405E
:1025500080B483B000AF00237B60104B5B6C0F4AEC
:1025600043F4804353640D4B5B6C03F480437B6006
:102570007B6800233B60094B1B6C084A43F0805387
:102580001364064B1B6C03F080533B603B6800BF39
:102590000C37BD465DF8047B704700BF0038024031
:1025A00080B400AFFEE780B400AFFEE780B400AFB8
:1025B000FEE780B400AFFEE780B400AFFEE780B472
:1025C00000AF00BFBD465DF8047B704780B400AF2C
:1025D00000BFBD465DF8047B704780B400AF00BF0C
:1025E000BD465DF8047B704780B500AF00F048FA47
:1025F00000BF80BD80B500AF024802F05DF800BFAB
:1026000080BD00BFF801002080B500AF024802F095
:1026100053F800BF80BD00BF4002002080B400AF6F
:1026200001231846BD465DF8047B704780B582B033
:1026300000AF7860396002F0BDFE034616221A60D2
:102640004FF0FF3318460837BD4680BD80B582B0D5
:1026500000AF78604FF0FF317868FFF7E7FFFEE7E3
:1026600080B586B000AFF860B9607A6000237B6106
:102670000AE0AFF300800146BB685A1CBA60CAB2D8
:102680001A707B6901337B617A697B689A42F0DB5F
:102690007B6818461837BD4680BD80B586B000AF50
:1026A000F860B9607A6000237B6109E0BB685A1C5E
:1026B000BA601B781846AFF300807B6901337B61F9
:1026C0007A697B689A42F1DB7B6818461837BD4609
:1026D00080BD80B483B000AF78604FF0FF33184600
:1026E0000C37BD465DF8047B704780B483B000AF03
:1026F000786039603B684FF400525A6000231846F6
:102700000C37BD465DF8047B704780B483B000AFE2
:102710007860012318460C37BD465DF8047B70478E
:1027200080B485B000AFF860B9607A6000231846C5
:102730001437BD465DF8047B7047000080B586B055
:1027400000AF7860144A154BD31A7B617B693B61FB
:10275000134B1B68002B02D1114B124A1A60104B0D
:102760001A687B6813443A699A4207D202F022FE43
:1027700003460C221A604FF0FF3309E0084B1B6838
:10278000FB60074B1A687B681344054A1360FB68BB
:1027900018461837BD4680BD000002200004000026
:1027A000F4010020D803002080B400AF064BD3F81A
:1027B0008830054A43F47003C2F8883000BFBD4634
:1027C0005DF8047B704700BF00ED00E080B586B087
:1027D00000AF07F1080300221A605A609A60DA60BD
:1027E0003B4600221A605A601D4B4FF080421A602F
:1027F0001B4B40F247325A60194B00229A60184B2B
:102800006322DA60164B00221A61154B00229A618E
:10281000134801F091FE0346002B01D0FFF744F866
:102820004FF48053BB6007F1080319460C4802F0CF
:102830004BF80346002B01D0FFF736F800233B602E
:1028400000237B603B461946054802F067FA0346C1
:10285000002B01D0FFF728F800BF1837BD4680BD18
:10286000F801002080B586B000AF07F10803002210
:102870001A605A609A60DA603B4600221A605A6019
:102880001D4B1E4A1A601C4B40F247325A601A4BCD
:1028900000229A60184B6322DA60174B00221A61FB
:1028A000154B00229A61144801F046FE0346002BA6
:1028B00001D0FEF7F9FF4FF48053BB6007F1080326
:1028C00019460D4802F000F80346002B01D0FEF730
:1028D000EBFF00233B6000237B603B461946064824
:1028E00002F01CFA0346002B01D0FEF7DDFF00BF0B
:1028F0001837BD4680BD00BF4002002000080040E0
:1029000080B584B000AF78607B681B68B3F1804FFE
:1029100016D10023FB601A4B1B6C194A43F00103CC
:102920001364174B1B6C03F00103FB60FB68002270
:1029300000211C2000F0C3F91C2000F0DCF91AE093
:102940007B681B680F4A934215D10023BB600C4B78
:102950001B6C0B4A43F004031364094B1B6C03F01C
:102960000403BB60BB68002200211E2000F0A7F911
:102970001E2000F0C0F900BF1037BD4680BD00BF6B
:102980000038024000080040DFF834D00D480E49FE
:102990000E4A002302E0D458C4500433C4188C42B9
:1029A000F9D30B4A0B4C002301E013600432A2421E
:1029B000FBD3FFF7F9FE02F003FDFEF7D5FE7047EB
:1029C0000000022000000020780000203491000860
:1029D00078000020D8030020FEE7000080B500AF9B
:1029E0000E4B1B680D4A43F4007313600B4B1B68BE
:1029F0000A4A43F480631360084B1B68074A43F498
:102A000080731360032000F04FF90F2000F008F8E6
:102A1000FFF79EFD0023184680BD00BF003C02402A
:102A200080B582B000AF7860124B1A68124B1B78E9
:102A300019464FF47A73B3FBF1F3B2FBF3F3184684
:102A400000F067F90346002B01D001230EE07B68FC
:102A50000F2B0AD8002279684FF0FF3000F02FF9D1
:102A6000064A7B681360002300E0012318460837FC
:102A7000BD4680BD1000002018000020140000207A
:102A800080B400AF064B1B781A46064B1B681344F4
:102A9000044A136000BFBD465DF8047B704700BF69
:102AA000180000208802002080B400AF034B1B6890
:102AB0001846BD465DF8047B704700BF88020020C1
:102AC00080B584B000AF7860FFF7EEFFB8607B6838
:102AD000FB60FB68B3F1FF3F05D00A4B1B781A4639
:102AE000FB681344FB6000BFFFF7DEFF0246BB68D4
:102AF000D31AFA689A42F7D800BF00BF1037BD4614
:102B000080BD00BF1800002080B485B000AF7860A1
:102B10007B6803F00703FB600C4BDB68BB60BA68A3
:102B20004FF6FF031340BB60FB681A02BB681343F8
:102B300043F0BF6343F40033BB60044ABB68D36017
:102B400000BF1437BD465DF8047B704700ED00E020
:102B500080B400AF044BDB681B0A03F00703184680
:102B6000BD465DF8047B704700ED00E080B483B0A3
:102B700000AF0346FB7197F90730002B0BDBFB79A5
:102B800003F01F02074997F907305B09012000FA9B
:102B900002F241F8232000BF0C37BD465DF8047BEC
:102BA000704700BF00E100E080B483B000AF03468F
:102BB0003960FB7197F90730002B0ADB3B68DAB20A
:102BC0000C4997F907301201D2B20B4483F8002365
:102BD0000AE03B68DAB20849FB7903F00F03043BD3
:102BE0001201D2B20B441A7600BF0C37BD465DF815
:102BF000047B704700E100E000ED00E080B489B0A4
:102C000000AFF860B9607A60FB6803F00703FB610E
:102C1000FB69C3F10703042B28BF0423BB61FB69D5
:102C20000433062B02D9FB69033B00E000237B61E0
:102C30004FF0FF32BB6902FA03F3DA43BB681A4074
:102C40007B699A404FF0FF317B6901FA03F3D94366
:102C50007B680B40134318462437BD465DF8047B60
:102C60007047000080B582B000AF78607B68013BA0
:102C7000B3F1807F01D301230FE00A4A7B68013B57
:102C800053600F214FF0FF30FFF78EFF054B0022FE
:102C90009A60044B07221A60002318460837BD4685
:102CA00080BD00BF10E000E080B582B000AF78606A
:102CB0007868FFF729FF00BF0837BD4680BD80B5A3
:102CC00086B000AF0346B9607A60FB7300237B6176
:102CD000FFF73EFF78617A68B9687869FFF78EFF81
:102CE000024697F90F3011461846FFF75DFF00BF07
:102CF0001837BD4680BD80B582B000AF0346FB717A
:102D000097F907301846FFF731FF00BF0837BD4677
:102D100080BD80B582B000AF78607868FFF7A2FF11
:102D2000034618460837BD4680BD000080B489B010
:102D300000AF7860396000237B6100233B61002392
:102D4000BB610023FB616BE10122FB6902FA03F323
:102D50007B613B681B687A6913403B613A697B6918
:102D60009A4240F05A813B685B6803F00303012BF1
:102D700005D03B685B6803F00303022B30D17B680E
:102D80009B68BB61FB695B00032202FA03F3DB4330
:102D9000BA691340BB613B68DA68FB695B0002FA01
:102DA00003F3BA691343BB617B68BA699A607B68B5
:102DB0005B68BB610122FB6902FA03F3DB43BA697A
:102DC0001340BB613B685B681B0903F00102FB69B0
:102DD00002FA03F3BA691343BB617B68BA695A60AC
:102DE0003B685B6803F00303032B17D07B68DB6849
:102DF000BB61FB695B00032202FA03F3DB43BA69A0
:102E00001340BB613B689A68FB695B0002FA03F3FD
:102E1000BA691343BB617B68BA69DA603B685B6877
:102E200003F00303022B23D1FB69DA087B68083225
:102E300053F82230BB61FB6903F007039B000F22AC
:102E400002FA03F3DB43BA691340BB613B681A69BA
:102E5000FB6903F007039B0002FA03F3BA6913430B
:102E6000BB61FB69DA087B680832B96943F8221054
:102E70007B681B68BB61FB695B00032202FA03F3FA
:102E8000DB43BA691340BB613B685B6803F0030234
:102E9000FB695B0002FA03F3BA691343BB617B6809
:102EA000BA691A603B685B6803F44033002B00F09A
:102EB000B4800023FB60604B5B6C5F4A43F480434B
:102EC00053645D4B5B6C03F48043FB60FB685B4ABF
:102ED000FB699B08023352F82330BB61FB6903F0A6
:102EE00003039B000F2202FA03F3DB43BA6913408A
:102EF000BB617B68524A93422BD07B68514A934214
:102F000025D07B68504A93421FD07B684F4A93423A
:102F100019D07B684E4A934213D07B684D4A934246
:102F20000DD07B684C4A934207D07B684B4A934252
:102F300001D107230EE008230CE006230AE0052355
:102F400008E0042306E0032304E0022302E0012357
:102F500000E00023FA6902F0030292009340BA698C
:102F60001343BB613549FB699B080233BA6941F8D9
:102F700023203B4B1B68BB613B69DB43BA691340B1
:102F8000BB613B685B6803F48033002B03D0BA69F4
:102F90003B691343BB61324ABB691360304B5B68CA
:102FA000BB613B69DB43BA691340BB613B685B684B
:102FB00003F40033002B03D0BA693B691343BB61B0
:102FC000274ABB695360264B9B68BB613B69DB4367
:102FD000BA691340BB613B685B6803F48013002B44
:102FE00003D0BA693B691343BB611D4ABB69936057
:102FF0001B4BDB68BB613B69DB43BA691340BB61B8
:103000003B685B6803F40013002B03D0BA693B698B
:103010001343BB61124ABB69D360FB690133FB6197
:10302000FB690F2B7FF690AE00BF00BF2437BD4673
:103030005DF8047B704700BF003802400038014053
:10304000000002400004024000080240000C024060
:10305000001002400014024000180240001C024010
:10306000003C014080B483B000AF78600B467B80A9
:1030700013467B707B78002B03D07A887B689A613B
:1030800003E07B881A047B689A6100BF0C37BD4659
:103090005DF8047B7047000080B586B000AF7860B3
:1030A0007B68002B01D1012367E27B681B6803F07A
:1030B0000103002B75D0884B9B6803F00C03042B95
:1030C0000CD0854B9B6803F00C03082B12D1824B6C
:1030D0005B6803F48003B3F5800F0BD17E4B1B6854
:1030E00003F40033002B5BD07B685B68002B57D167
:1030F000012342E27B685B68B3F5803F06D1764BE3
:103100001B68754A43F4803313601DE07B685B687D
:10311000B3F5A02F0CD1704B1B686F4A43F480238A
:1031200013606D4B1B686C4A43F4803313600BE0F3
:10313000694B1B68684A23F480331360664B1B6835
:10314000654A23F4802313607B685B68002B13D0EF
:10315000FFF7AAFC386108E0FFF7A6FC02463B69CE
:10316000D31A642B01D9032307E25B4B1B6803F4DA
:103170000033002BF0D014E0FFF796FC386108E034
:10318000FFF792FC02463B69D31A642B01D9032353
:10319000F3E1514B1B6803F40033002BF0D100E046
:1031A00000BF7B681B6803F00203002B63D04A4B0F
:1031B0009B6803F00C03002B0BD0474B9B6803F07C
:1031C0000C03082B1CD1444B5B6803F48003002BD9
:1031D00016D1414B1B6803F00203002B05D07B681E
:1031E000DB68012B01D00123C7E13B4B1B6823F0B7
:1031F000F8027B681B69DB00374913430B603AE038
:103200007B68DB68002B20D0344B01221A60FFF76B
:103210004BFC386108E0FFF747FC02463B69D31AD4
:10322000022B01D90323A8E12B4B1B6803F00203F7
:10323000002BF0D0284B1B6823F0F8027B681B6939
:10324000DB00254913430B6015E0244B00221A6074
:10325000FFF72AFC386108E0FFF726FC02463B69CD
:10326000D31A022B01D9032387E11B4B1B6803F000
:103270000203002BF0D17B681B6803F00803002BCE
:1032800036D07B685B69002B16D0154B01221A6083
:10329000FFF70AFC386108E0FFF706FC02463B69CD
:1032A000D31A022B01D9032367E10B4B5B6F03F0A9
:1032B0000203002BF0D01BE0094B00221A60FFF73D
:1032C000F3FB38610EE0FFF7EFFB02463B69D31AD0
:1032D000022B07D9032350E1003802400000474287
:1032E000800E4742884B5B6F03F00203002BEAD14C
:1032F0007B681B6803F00403002B00F09780002319
:10330000FB75814B1B6C03F08053002B0FD1002306
:10331000BB607D4B1B6C7C4A43F0805313647A4B3B
:103320001B6C03F08053BB60BB680123FB75774BBC
:103330001B6803F48073002B18D1744B1B68734A0D
:1033400043F480731360FFF7AFFB386108E0FFF7C9
:10335000ABFB02463B69D31A022B01D903230CE1D4
:103360006A4B1B6803F48073002BF0D07B689B686A
:10337000012B06D1644B1B6F634A43F001031367B3
:103380001CE07B689B68052B0CD15F4B1B6F5E4A72
:1033900043F0040313675C4B1B6F5B4A43F001036C
:1033A00013670BE0584B1B6F574A23F00103136759
:1033B000554B1B6F544A23F0040313677B689B68CB
:1033C000002B15D0FFF770FB38610AE0FFF76CFBAC
:1033D00002463B69D31A41F28832934201D9032352
:1033E000CBE0494B1B6F03F00203002BEED014E03F
:1033F000FFF75AFB38610AE0FFF756FB02463B69CC
:10340000D31A41F28832934201D90323B5E03E4BEF
:103410001B6F03F00203002BEED1FB7D012B05D1C6
:10342000394B1B6C384A23F0805313647B689B69CB
:10343000002B00F0A180344B9B6803F00C03082B99
:103440005CD07B689B69022B41D1314B00221A6012
:10345000FFF72AFB386108E0FFF726FB02463B69CD
:10346000D31A022B01D9032387E0274B1B6803F0F3
:103470000073002BF0D17B68DA697B681B6A1A4302
:103480007B685B6A9B011A437B689B6A5B08013B14
:103490001B041A437B68DB6A1B061B4913434B6002
:1034A0001B4B01221A60FFF7FFFA386108E0FFF7B3
:1034B000FBFA02463B69D31A022B01D903235CE0D5
:1034C000114B1B6803F00073002BF0D054E0104B3D
:1034D00000221A60FFF7E8FA386108E0FFF7E4FA23
:1034E00002463B69D31A022B01D9032345E0064B60
:1034F0001B6803F00073002BF0D13DE07B689B69F3
:10350000012B07D1012338E0003802400070004051
:10351000600047421B4B5B68FB607B689B69012B2B
:1035200028D0FB6803F480027B68DB699A4221D1D2
:10353000FB6803F03F027B681B6A9A421AD1FA6863
:1035400047F6C07313407A68526A9201934211D1D0
:10355000FB6803F440327B689B6A5B08013B1B04F9
:103560009A4207D1FB6803F070627B68DB6A1B0636
:103570009A4201D0012300E0002318461837BD46C7
:1035800080BD00BF0038024080B584B000AF7860D5
:1035900039607B68002B01D10123CCE0684B1B68AC
:1035A00003F007033A689A420CD9654B3A68D2B2E5
:1035B0001A70634B1B6803F007033A689A4201D004
:1035C0000123B8E07B681B6803F00203002B20D0C6
:1035D0007B681B6803F00403002B05D0594B9B68E4
:1035E000584A43F4E05393607B681B6803F0080378
:1035F000002B05D0534B9B68524A43F460439360C1
:10360000504B9B6823F0F0027B689B684D49134345
:103610008B607B681B6803F00103002B44D07B6840
:103620005B68012B07D1474B1B6803F40033002B69
:1036300019D101237FE07B685B68022B03D07B6894
:103640005B68032B07D13F4B1B6803F00073002B13
:1036500009D101236FE03B4B1B6803F00203002BF1
:1036600001D1012367E0374B9B6823F003027B689D
:103670005B68344913438B60FFF716FAF8600AE081
:10368000FFF712FA0246FB68D31A41F288329342DE
:1036900001D903234FE02B4B9B6803F00C027B689E
:1036A0005B689B009A42EBD1254B1B6803F0070334
:1036B0003A689A420CD2224B3A68D2B21A70204B26
:1036C0001B6803F007033A689A4201D0012332E0F5
:1036D0007B681B6803F00403002B08D0194B9B6820
:1036E00023F4E0527B68DB68164913438B607B68E8
:1036F0001B6803F00803002B09D0124B9B6823F4CE
:1037000060427B681B69DB000E4913438B6000F04D
:1037100021F802460B4B9B681B0903F00F030A4973
:10372000CB5C22FA03F3094A1360094B1B68184665
:10373000FFF776F9002318461037BD4680BD00BF5D
:10374000003C024000380240349000081000002085
:10375000140000202DE9B04F94B000AF00237B642B
:103760000023FB6400233B640023BB64794B9B680C
:1037700003F00C03082B0DD0082B00F2E180002B86
:1037800002D0042B03D0DBE0734BBB64DBE0734B54
:10379000BB64D8E06F4B5B6803F03F037B646D4B09
:1037A0005B6803F48003002B63D06A4B5B689B0962
:1037B0000022BB63FA63BB6BC3F308033B630023C4
:1037C0007B63D7E90C4522462B464FF000004FF0B3
:1037D0000001590141EAD261500102460B462146DF
:1037E000511A3961294663EB01037B614FF00002F6
:1037F0004FF00003D7E904AB59468B01514643EA29
:10380000916351468A015146B2EB0108594663EB78
:1038100001094FF000024FF000034FEAC90343EAE9
:1038200058734FEAC80290469946234618EB0303A3
:10383000BB602B4649EB0303FB604FF000024FF0E7
:103840000003D7E9024529464B02214643EAD153FA
:1038500021464A02104619467B6C0022BB62FA627E
:10386000D7E90A23FCF704FD02460B461346FB6426
:1038700058E0384B5B689B09002218461146C0F39C
:1038800008033B6200237B62D7E9088942464B4626
:103890004FF000004FF00001590141EAD2615001A0
:1038A00002460B464146B2EB010A494663EB010B67
:1038B0004FF000024FF000034FEA8B1343EA9A6384
:1038C0004FEA8A12B2EB0A0463EB0B054FF00002D9
:1038D0004FF00003EB0043EA5473E20014461D4628
:1038E0004346E3183B604B4645EB03037B604FF0D8
:1038F00000024FF00003D7E9004529468B0221461C
:1039000043EA915321468A02104619467B6C0022F5
:10391000BB61FA61D7E90623FCF7AAFC02460B4615
:103920001346FB640B4B5B681B0C03F00303013372
:103930005B003B64FA6C3B6CB2FBF3F3BB6402E0EC
:10394000054BBB6400BFBB6C18465037BD46BDE895
:10395000B08F00BF003802400024F40000127A004B
:1039600080B582B000AF78607B68002B01D1012365
:103970007BE07B685B6A002B08D17B685B68B3F5F2
:10398000827F09D07B680022DA6105E07B68002233
:103990001A617B6800225A617B6800229A627B6808
:1039A00093F85130DBB2002B06D17B68002283F8FC
:1039B00050207868FEF784FD7B68022283F851204E
:1039C0007B681B681A687B681B6822F040021A60DB
:1039D0007B685B6803F482727B689B6803F4044332
:1039E0001A437B68DB6803F400631A437B681B6936
:1039F00003F002031A437B685B6903F001031A4377
:103A00007B689B6903F400731A437B68DB6903F0EE
:103A100038031A437B681B6A03F0800342EA030100
:103A20007B689B6A03F400527B681B680A431A6038
:103A30007B689B691B0C03F004017B685B6A03F0E5
:103A400010027B681B680A435A607B681B68DA694E
:103A50007B681B6822F40062DA617B6800225A6589
:103A60007B68012283F85120002318460837BD46A1
:103A700080BD80B588B000AFF860B9603B60134688
:103A8000FB800023FB77FB6893F85030012B01D1BA
:103A9000022326E1FB68012283F85020FFF704F897
:103AA000B861FB88FB82FB6893F85130DBB2012BD5
:103AB00002D00223FB770BE1BB68002B02D0FB880E
:103AC000002B02D10123FB7702E1FB68032283F87C
:103AD0005120FB6800225A65FB68BA681A63FB68CC
:103AE000FA889A86FB68FA88DA86FB6800229A636D
:103AF000FB6800229A87FB680022DA87FB680022B5
:103B00005A64FB6800221A64FB689B68B3F5004F97
:103B10000FD1FB681B681A68FB681B6822F0400223
:103B20001A60FB681B681A68FB681B6842F48042D5
:103B30001A60FB681B681B6803F04003402B07D02A
:103B4000FB681B681A68FB681B6842F040021A6039
:103B5000FB68DB68B3F5006F4BD1FB685B68002B3B
:103B600002D0FB8A012B3ED1FB681B6B1A88FB68D5
:103B70001B68DA60FB681B6B9A1CFB681A63FB68A6
:103B8000DB8E9BB2013B9AB2FB68DA862BE0FB68C6
:103B90001B689B6803F00203022B12D1FB681B6BAE
:103BA0001A88FB681B68DA60FB681B6B9A1CFB6851
:103BB0001A63FB68DB8E9BB2013B9AB2FB68DA8624
:103BC00011E0FEF771FF0246BB69D31A3A689A42C8
:103BD00003D83B68B3F1FF3F02D13B68002B02D111
:103BE0000323FB7774E0FB68DB8E9BB2002BCED106
:103BF0004CE0FB685B68002B02D0FB8A012B40D1B4
:103C0000FB681A6BFB681B680C3312781A70FB6830
:103C10001B6B5A1CFB681A63FB68DB8E9BB2013B73
:103C20009AB2FB68DA862CE0FB681B689B6803F09D
:103C30000203022B13D1FB681A6BFB681B680C3361
:103C400012781A70FB681B6B5A1CFB681A63FB68BE
:103C5000DB8E9BB2013B9AB2FB68DA8611E0FEF77D
:103C600023FF0246BB69D31A3A689A4203D83B68DD
:103C7000B3F1FF3F02D13B68002B02D10323FB7756
:103C800026E0FB68DB8E9BB2002BCDD1BA69396888
:103C9000F86800F0CBFB0346002B02D0FB68202223
:103CA0005A65FB689B68002B0AD100233B61FB68C7
:103CB0001B68DB683B61FB681B689B683B613B6979
:103CC000FB685B6D002B02D00123FB7700E000BF97
:103CD000FB68012283F85120FB68002283F8502002
:103CE000FB7F18462037BD4680BD80B588B002AF47
:103CF000F860B9603B601346FB800023FB75FB68EE
:103D00005B68B3F5827F12D1FB689B68002B0ED1F4
:103D1000FB68042283F85120FA883B68009313461D
:103D2000BA68B968F86800F0F1F80346EAE0FB68A1
:103D300093F85030012B01D10223E3E0FB6801220C
:103D400083F85020FEF7B0FE3861FB6893F85130DD
:103D5000DBB2012B02D00223FB75CAE0BB68002B4B
:103D600002D0FB88002B02D10123FB75C1E0FB6868
:103D7000042283F85120FB6800225A65FB68BA6868
:103D80009A63FB68FA889A87FB68FA88DA87FB6887
:103D900000221A63FB6800229A86FB680022DA86FA
:103DA000FB6800221A64FB6800225A64FB689B6867
:103DB000B3F5004F0FD1FB681B681A68FB681B68DE
:103DC00022F040021A60FB681B681A68FB681B68D7
:103DD00022F480421A60FB681B681B6803F04003F2
:103DE000402B07D0FB681B681A68FB681B6842F011
:103DF00040021A60FB68DB68002B62D12EE0FB6892
:103E00001B689B6803F00103012B15D1FB681B683D
:103E100003F10C02FB689B6B1278D2B21A70FB683C
:103E20009B6B5A1CFB689A63FB68DB8F9BB2013B60
:103E30009AB2FB68DA8711E0FEF736FE02463B696C
:103E4000D31A3A689A4203D83B68B3F1FF3F02D1D4
:103E50003B68002B02D10323FB754AE0FB68DB8F34
:103E60009BB2002BCBD131E0FB681B689B6803F051
:103E70000103012B13D1FB681B68DA68FB689B6B9D
:103E800092B21A80FB689B6B9A1CFB689A63FB6872
:103E9000DB8F9BB2013B9AB2FB68DA8711E0FEF739
:103EA00003FE02463B69D31A3A689A4203D83B683C
:103EB000B3F1FF3F02D13B68002B02D10323FB7516
:103EC00017E0FB68DB8F9BB2002BCDD13A693968D4
:103ED000F86800F045FA0346002B02D0FB68202268
:103EE0005A65FB685B6D002B02D00123FB7500E077
:103EF00000BFFB68012283F85120FB68002283F891
:103F00005020FB7D18461837BD4680BD80B58CB06B
:103F100000AFF860B9607A607B800123FB62002308
:103F200087F82B30FB6893F85030012B01D1022326
:103F30008AE1FB68012283F85020FEF7B5FD786224
:103F4000FB6893F8513087F82330FB685B68FB61AE
:103F50007B887B8397F82330012B0FD0FB69B3F567
:103F6000827F07D1FB689B68002B03D197F8233031
:103F7000042B03D0022387F82B305BE1BB68002BB6
:103F800005D07B68002B02D07B88002B03D1012356
:103F900087F82B304EE1FB6893F85130DBB2042BED
:103FA00003D0FB68052283F85120FB6800225A6584
:103FB000FB687A689A63FB687A88DA87FB687A8894
:103FC0009A87FB68BA681A63FB687A88DA86FB68A6
:103FD0007A889A86FB6800221A64FB6800225A6479
:103FE000FB681B681B6803F04003402B07D0FB688D
:103FF0001B681A68FB681B6842F040021A60FB6885
:10400000DB68B3F5006F78D1FB685B68002B02D0EA
:104010007B8B012B66D1FB681B6B1A88FB681B68C6
:10402000DA60FB681B6B9A1CFB681A63FB68DB8E0B
:104030009BB2013B9AB2FB68DA8653E0FB681B68CF
:104040009B6803F00203022B1BD1FB68DB8E9BB243
:10405000002B16D0FB6A012B13D1FB681B6B1A884F
:10406000FB681B68DA60FB681B6B9A1CFB681A63B1
:10407000FB68DB8E9BB2013B9AB2FB68DA860023B9
:10408000FB62FB681B689B6803F00103012B19D1DD
:10409000FB68DB8F9BB2002B14D0FB681B68DA68CF
:1040A000FB689B6B92B21A80FB689B6B9A1CFB6847
:1040B0009A63FB68DB8F9BB2013B9AB2FB68DA879D
:1040C0000123FB62FEF7F0FC02467B6AD31ABA6B4F
:1040D0009A4207D8BB6BB3F1FF3F03D0032387F8A5
:1040E0002B30A7E0FB68DB8E9BB2002BA6D1FB68D0
:1040F000DB8F9BB2002BA1D17CE0FB685B68002BBF
:1041000002D07B8B012B6BD1FB681A6BFB681B68A1
:104110000C3312781A70FB681B6B5A1CFB681A630D
:10412000FB68DB8E9BB2013B9AB2FB68DA8657E0F4
:10413000FB681B689B6803F00203022B1CD1FB6821
:10414000DB8E9BB2002B17D0FB6A012B14D1FB68CE
:104150001A6BFB681B680C3312781A70FB681B6BB8
:104160005A1CFB681A63FB68DB8E9BB2013B9AB258
:10417000FB68DA860023FB62FB681B689B6803F020
:104180000103012B19D1FB68DB8F9BB2002B14D0EC
:10419000FB681B68DA68FB689B6BD2B21A70FB681D
:1041A0009B6B5A1CFB689A63FB68DB8F9BB2013BDD
:1041B0009AB2FB68DA870123FB62FEF775FC0246C0
:1041C0007B6AD31ABA6B9A4203D8BB6BB3F1FF3F39
:1041D00002D1BB6B002B03D1032387F82B3029E0DE
:1041E000FB68DB8E9BB2002BA2D1FB68DB8F9BB2FE
:1041F000002B9DD17A6AB96BF86800F017F9034675
:10420000002B06D0012387F82B30FB6820225A654B
:1042100010E0FB689B68002B0BD100237B61FB68DF
:104220001B68DB687B61FB681B689B687B617B6943
:1042300000E000BFFB68012283F85120FB680022E8
:1042400083F8502097F82B3018463037BD4680BD94
:1042500080B588B000AFF860B9603B601346FB7171
:10426000FEF722FC0246BB6A9B1A3A681344FB61C4
:10427000FEF71AFCB861394B1B685B011B0DFA692C
:1042800002FB03F37B6154E03B68B3F1FF3F50D086
:10429000FEF70AFC0246BB69D31AFA699A4202D9B0
:1042A000FB69002B3DD1FB681B685A68FB681B68E3
:1042B00022F0E0025A60FB685B68B3F5827F11D19F
:1042C000FB689B68B3F5004F04D0FB689B68B3F5AF
:1042D000806F07D1FB681B681A68FB681B6822F0B7
:1042E00040021A60FB689B6AB3F5005F0FD1FB6860
:1042F0001B681A68FB681B6822F400521A60FB688E
:104300001B681A68FB681B6842F400521A60FB685D
:10431000012283F85120FB68002283F850200323F8
:1043200017E07B69002B01D10023FB617B69013B16
:104330007B61FB681B689A68BB681340BA689A4245
:104340000CBF01230023DBB21A46FB799A429BD1B2
:10435000002318462037BD4680BD00BF1000002056
:1043600080B586B002AFF860B9607A60FB685B68C0
:10437000B3F5827F11D1FB689B68B3F5004F04D081
:10438000FB689B68B3F5806F07D1FB681B681A68F0
:10439000FB681B6822F040021A60FB685B68B3F59B
:1043A000827F2AD1FB689B68B3F5806F12D07B684F
:1043B0000093BB6800228021F868FFF749FF03469D
:1043C000002B2DD0FB685B6D43F02002FB685A6523
:1043D000032326E07B680093BB6800220121F86874
:1043E000FFF736FF0346002B1AD0FB685B6D43F0E6
:1043F0002002FB685A65032313E07B680093BB68C7
:1044000000220121F868FFF723FF0346002B07D0A5
:10441000FB685B6D43F02002FB685A65032300E0F4
:10442000002318461037BD4680BD000080B588B017
:1044300002AFF860B9607A601B4B1B681B4AA2FB95
:1044400003235B0D4FF47A7202FB03F37B61FB687D
:104450005B68B3F5827F12D17B680093BB68002252
:104460008021F868FFF7F4FE0346002B16D0FB68A6
:104470005B6D43F02002FB685A6503230FE07B6904
:10448000002B0AD07B69013B7B61FB681B689B6842
:1044900003F08003802BF2D000E000BF0023184619
:1044A0001837BD4680BD00BF10000020819F5E16FA
:1044B00080B584B000AFF860B9607A60FB68002B0B
:1044C00001D1012334E0FB6893F84930DBB2002BC3
:1044D00006D1FB68002283F84820F868FCF784F9CD
:1044E000FB681A68FB6808331946104600F0A6FC02
:1044F000FB681868FB689B681A46B96800F0F0FC16
:10450000FB685868FB689A68FB681B6B796800F069
:1045100025FDFB681B68FA68926853F82210FB6857
:104520001B68FA68926841F0010143F822100023E9
:1045300018461037BD4680BD80B582B000AF7860A8
:104540007B68002B01D1012341E07B6893F83D306B
:10455000DBB2002B06D17B68002283F83C20786810
:10456000FEF7CEF97B68022283F83D207B681A684B
:104570007B6804331946104600F096FA7B680122E6
:1045800083F846207B68012283F83E207B68012265
:1045900083F83F207B68012283F840207B6801225A
:1045A00083F841207B68012283F842207B68012246
:1045B00083F843207B68012283F844207B68012232
:1045C00083F845207B68012283F83D2000231846AC
:1045D0000837BD4680BD000080B485B000AF78606C
:1045E0007B6893F83D30DBB2012B01D001234EE014
:1045F0007B68022283F83D207B681B68DA687B6851
:104600001B6842F00102DA607B681B68234A934210
:1046100022D07B681B68B3F1804F1DD07B681B687C
:104620001F4A934218D07B681B681E4A934213D0DE
:104630007B681B681C4A93420ED07B681B681B4A30
:10464000934209D07B681B68194A934204D07B6867
:104650001B68184A934211D17B681B689B6803F062
:104660000703FB60FB68062B10D07B681B681A6889
:104670007B681B6842F001021A6007E07B681B68D8
:104680001A687B681B6842F001021A600023184612
:104690001437BD465DF8047B704700BF0000014041
:1046A0000004004000080040000C004000040140ED
:1046B000004001400018004080B582B000AF786033
:1046C0007B681B681B6903F00203022B22D17B6805
:1046D0001B68DB6803F00203022B1BD17B681B689D
:1046E0006FF002021A617B6801221A777B681B68EF
:1046F0009B6903F00303002B03D0786800F0B5F941
:1047000005E0786800F0A7F9786800F0B8F97B68F0
:1047100000221A777B681B681B6903F00403042BD3
:1047200022D17B681B68DB6803F00403042B1BD1D8
:104730007B681B686FF004021A617B6802221A779B
:104740007B681B689B6903F44073002B03D0786877
:1047500000F08BF905E0786800F07DF9786800F0EA
:104760008EF97B6800221A777B681B681B6903F04F
:104770000803082B22D17B681B68DB6803F0080361
:10478000082B1BD17B681B686FF008021A617B68DD
:1047900004221A777B681B68DB6903F00303002B94
:1047A00003D0786800F061F905E0786800F053F90B
:1047B000786800F064F97B6800221A777B681B68D0
:1047C0001B6903F01003102B22D17B681B68DB6888
:1047D00003F01003102B1BD17B681B686FF01002D5
:1047E0001A617B6808221A777B681B68DB6903F40F
:1047F0004073002B03D0786800F037F905E0786843
:1048000000F029F9786800F03AF97B6800221A77FD
:104810007B681B681B6903F00103012B0ED17B68C9
:104820001B68DB6803F00103012B07D17B681B6861
:104830006FF001021A617868FDF7C0FD7B681B68A4
:104840001B6903F08003802B0ED17B681B68DB683B
:1048500003F08003802B07D17B681B686FF0800218
:104860001A61786800F0E0FA7B681B681B6903F046
:104870004003402B0ED17B681B68DB6803F04003CC
:10488000402B07D17B681B686FF040021A61786883
:1048900000F0FFF87B681B681B6903F02003202BE6
:1048A0000ED17B681B68DB6803F02003202B07D147
:1048B0007B681B686FF020021A61786800F0AAFA22
:1048C00000BF0837BD4680BD80B584B000AF7860BA
:1048D00039600023FB737B6893F83C30012B01D1D6
:1048E0000223B4E07B68012283F83C207B6802222B
:1048F00083F83D207B681B689B68BB60BB6823F026
:104900007703BB60BB6823F47F43BB607B681B6895
:10491000BA689A603B681B68B3F5005F3ED0B3F598
:10492000005F00F28780B3F5805F00F08680B3F50A
:10493000805F7FD8702B1AD0702B7BD8602B50D023
:10494000602B77D8502B3CD0502B73D8402B58D0AD
:10495000402B6FD8302B64D0302B6BD8202B60D0FD
:10496000202B67D8002B5CD0102B5AD062E07B68DC
:1049700018683B6899683B685A683B68DB6800F0D8
:10498000ADF97B681B689B68BB60BB6843F077032D
:10499000BB607B681B68BA689A604FE07B681868E8
:1049A0003B6899683B685A683B68DB6800F096F999
:1049B0007B681B689A687B681B6842F480429A6037
:1049C0003CE07B6818683B6859683B68DB681A46BE
:1049D00000F00AF97B681B685021184600F063F963
:1049E0002CE07B6818683B6859683B68DB681A46AE
:1049F00000F029F97B681B686021184600F053F924
:104A00001CE07B6818683B6859683B68DB681A469D
:104A100000F0EAF87B681B684021184600F043F973
:104A20000CE07B681A683B681B681946104600F06A
:104A30003AF903E00123FB7300E000BF7B68012229
:104A400083F83D207B68002283F83C20FB7B1846DE
:104A50001037BD4680BD80B483B000AF786000BF22
:104A60000C37BD465DF8047B704780B483B000AF5F
:104A7000786000BF0C37BD465DF8047B704780B49A
:104A800083B000AF786000BF0C37BD465DF8047B93
:104A9000704780B483B000AF786000BF0C37BD466C
:104AA0005DF8047B7047000080B485B000AF78608B
:104AB00039607B681B68FB607B68404A934213D077
:104AC0007B68B3F1804F0FD07B683D4A93420BD097
:104AD0007B683C4A934207D07B683B4A934203D0B1
:104AE0007B683A4A934208D1FB6823F07003FB606D
:104AF0003B685B68FA681343FB607B682F4A93420C
:104B00002BD07B68B3F1804F27D07B682C4A93422F
:104B100023D07B682B4A93421FD07B682A4A93425A
:104B20001BD07B68294A934217D07B68284A93425E
:104B300013D07B68274A93420FD07B68264A934262
:104B40000BD07B68254A934207D07B68244A934266
:104B500003D07B68234A934208D1FB6823F4407357
:104B6000FB603B68DB68FA681343FB60FB6823F07B
:104B700080023B685B691343FB607B68FA681A60DC
:104B80003B689A687B68DA623B681A687B689A625D
:104B90007B680A4A934203D07B680C4A934203D154
:104BA0003B681A697B681A637B6801225A6100BFFF
:104BB0001437BD465DF8047B704700BF000001401C
:104BC0000004004000080040000C004000040140C8
:104BD00000400140004401400048014000180040EE
:104BE000001C00400020004080B487B000AFF86097
:104BF000B9607A60FB681B6A7B61FB681B6A23F003
:104C00000102FB681A62FB689B693B613B6923F008
:104C1000F0033B617B681B013A6913433B617B698D
:104C200023F00A037B617A69BB6813437B61FB68ED
:104C30003A699A61FB687A691A6200BF1C37BD46FF
:104C40005DF8047B704780B487B000AFF860B9604E
:104C50007A60FB681B6A23F01002FB681A62FB682B
:104C60009B697B61FB681B6A3B617B6923F4704332
:104C70007B617B681B037A6913437B613B6923F08B
:104C8000A0033B61BB681B013A6913433B61FB68AE
:104C90007A699A61FB683A691A6200BF1C37BD469F
:104CA0005DF8047B704780B485B000AF78603960F0
:104CB0007B689B68FB60FB6823F07003FB603A68CD
:104CC000FB68134343F00703FB607B68FA689A6054
:104CD00000BF1437BD465DF8047B704780B487B0D1
:104CE00000AFF860B9607A603B60FB689B687B61ED
:104CF0007B6923F47F437B613B681A027B681A431C
:104D0000BB6813437A6913437B61FB687A699A60D5
:104D100000BF1C37BD465DF8047B704780B485B08A
:104D200000AF786039607B6893F83C30012B01D18B
:104D300002235AE07B68012283F83C207B68022230
:104D400083F83D207B681B685B68FB607B681B68A1
:104D50009B68BB60FB6823F07003FB603B681B68CB
:104D6000FA681343FB607B681B68FA685A607B68CB
:104D70001B68214A934222D07B681B68B3F1804FA5
:104D80001DD07B681B681D4A934218D07B681B6846
:104D90001B4A934213D07B681B681A4A93420ED079
:104DA0007B681B68184A934209D07B681B68174AC6
:104DB000934204D07B681B68154A93420CD1BB68B0
:104DC00023F08003BB603B685B68BA681343BB6039
:104DD0007B681B68BA689A607B68012283F83D2073
:104DE0007B68002283F83C20002318461437BD4618
:104DF0005DF8047B704700BF0000014000040040E4
:104E000000080040000C0040000401400040014048
:104E10000018004080B483B000AF786000BF0C374A
:104E2000BD465DF8047B704780B483B000AF786006
:104E300000BF0C37BD465DF8047B704780B485B079
:104E400000AF786039600023FB603B681A687B68BC
:104E500053F82230FB60FA68204B1340FB603B683C
:104E60005A683B689B681A433B68DB681A433B6897
:104E70001B691A433B685B691A433B689B691A4389
:104E80003B68DB691A433B681B6A1A433B685B6AF1
:104E90001A433B689B6A1A433B68DB6A1A433B68C8
:104EA000DB6B1A433B681B6B1343FA681343FB60CD
:104EB0003B689B68082B03D1FB6843F04003FB6011
:104EC0003B681A687B68F96843F82210002318468B
:104ED0001437BD465DF8047B704700BF8000F0FFCB
:104EE00080B487B000AFF860B9607A6000237B615E
:104EF0007B685A1CFB6853F822307B617B6903F0A6
:104F000040437B61BB681A68BB685B681B011A433E
:104F1000BB689B681B021A43BB68DB681B041A430F
:104F2000BB681B69013B1B051A43BB685B69023BFD
:104F30001B061A43BB689B6913437A6913437B6161
:104F40007B685A1CFB68796943F8221000231846D5
:104F50001C37BD465DF8047B7047000080B487B005
:104F600000AFF860B9607A603B6000237B613B680A
:104F7000B3F5804F22D1FB687A6853F822307B6109
:104F80007A69154B13407B61BB681A68BB685B6824
:104F90001B011A43BB689B681B021A43BB68DB6892
:104FA0001B041A43BB689B6913437A6913437B61F3
:104FB000FB687A68796943F8221005E0FB687A6833
:104FC0006FF0704143F82210002318461C37BD468D
:104FD0005DF8047B704700BF0000F0CF38B5104B80
:104FE0001D682B6B0446B3B9182000F07BFA02460B
:104FF000286320B90B4B0C48462100F009FA0B49F5
:105000000B4BC0E900130B4B83600B238381002102
:105010000120C2E904012B6B00221C615A6138BDDA
:1050200074000020449000085B9000080E33CDAB64
:1050300034126DE6ECDE0500164B10B51C68236BD0
:10504000B3B9182000F04EFA0246206320B9124B83
:105050001248522100F0DCF91149124BC0E900134B
:10506000114B83600B23838100210120C2E90401DD
:10507000216B0E480B694C690D4A584302FB040032
:10508000A3FB0232013340EB0200C1E9043020F0FF
:10509000004010BD74000020449000085B900008A0
:1050A0000E33CDAB34126DE6ECDE05002DF4515815
:1050B0002D7F954C002310B50446C0E90033C0E9AC
:1050C0000433836081814366C2818361194608226B
:1050D0005C3000F0F4F80D4B63620D4BA3620D4B96
:1050E000E3620D4B23630D4B24629C4206D003F117
:1050F0006802944202D0D0339C4205D104F158009A
:10510000BDE8104000F080B910BD00BF3952000862
:105110005B52000893520008B75200088C0200202E
:10512000024A0349034800F069B800BF1C00002090
:10513000595700082800002041680C4B994210B5CF
:10514000044601D000F008FBA168094B994202D047
:10515000204600F001FBE168064B994204D020464E
:10516000BDE8104000F0F8BA10BD00BF8C0200206E
:10517000F40200205C03002010B50B4B0B4C0C4AD2
:105180001A60204600220421FFF794FF04F1680012
:1051900001220921FFF78EFF04F1D0000222BDE8B1
:1051A00010401221FFF786BFC40300208C020020AC
:1051B00021510008014800F028B900BFCD030020AC
:1051C000014800F023B900BFCD03002010B504460C
:1051D000FFF7F0FF236A1BB1BDE81040FFF7F0BFF7
:1051E000044B2362044B1B68002BF5D1FFF7C4FF6F
:1051F000F2E700BF39510008C40300202DE9F8434D
:105200000746884614460026D4E90195B9F10109FC
:1052100005D52468002CF7D13046BDE8F883AB896A
:10522000012B07D9B5F90E30013303D02946384692
:10523000C04706436835E9E710B50C46B1F90E10D2
:1052400000F094F80028ABBF636DA3891B1823F40A
:105250008053ACBF6365A38110BD2DE9F0411F46AB
:105260008B89DB0505460C46164605D5B1F90E10AF
:105270000223002200F068F8A389B4F90E1023F489
:105280008053A38132463B462846BDE8F04100F0FA
:105290007FB810B50C46B1F90E1000F055F8431C5C
:1052A000A38915BF606523F4805343F48053A38121
:1052B00018BFA38110BDB1F90E1000F023B802444D
:1052C0000346934200D1704703F8011BF9E7000041
:1052D0001FB50B4B002269460446186800F022F8FF
:1052E0000028BEBF4FF0FF324FF0FF33CDE900235F
:1052F000DDE900010CB1C4E9000104B010BD00BF3C
:105300007400002038B5064D0023044608462B6083
:10531000FDF7DFF9431C02D12B6803B1236038BDD0
:10532000C803002038B5074D00230446084611463F
:105330002B6000F093FE431C02D12B6803B1236065
:1053400038BD00BFC803002038B5074D04460846E5
:10535000114600222A601A46FDF7E2F9431C02D1E9
:105360002B6803B1236038BDC803002038B5074D52
:1053700004460846114600222A601A46FDF770F9D5
:10538000431C02D12B6803B1236038BDC803002041
:1053900038B5074D04460846114600222A601A46D1
:1053A000FDF77BF9431C02D12B6803B1236038BDA4
:1053B000C8030020014B1868704700BF740000202C
:1053C00070B50D4D0D4C641BA4100026A64209D1EA
:1053D0000B4D0C4C00F04AFE641BA4100026A642A4
:1053E00005D170BD55F8043B98470136EEE755F8F6
:1053F000043B98470136F2E72C9100082C910008F5
:105400002C910008309100087047704770470000E9
:105410001FB514461A46094B1B680546D8684CB19F
:10542000074B0091CDE9013406492B4600F0BCF949
:1054300000F0DCF9044B1C46F3E700BF74000020C9
:10544000B3900008C0900008EE90000837B500291E
:1054500044D051F8043C0190002BA1F10404B8BFE2
:10546000E41800F0E7F81E4A0198136833B9636046
:10547000146003B0BDE8304000F0E2B8A34208D9A0
:10548000256861198B4201BF19685B684919216061
:10549000EDE71A465B680BB1A342FAD911685518BB
:1054A000A5420BD1246821445418A3421160E0D1D5
:1054B0001C685B6853600C441460DAE702D90C2363
:1054C0000360D6E7256861198B4204BF19685B68E1
:1054D000636004BF491921605460CAE703B030BD5E
:1054E000D0030020024B0146186800F023B800BF2B
:1054F0007400002070B50E4E0C463168054611B997
:1055000000F064F930602146284600F05FF9431C42
:105510000AD0C41C24F00304A04207D0211A284654
:1055200000F054F9013001D14FF0FF34204670BD36
:10553000D40300202DE9F843CD1C25F003050835E0
:105540000C2D38BF0C25002D074601DBA94205D9DB
:105550000C233B6000263046BDE8F883DFF8D0809E
:1055600000F068F8D8F800301C465CBB2946384685
:10557000FFF7C0FF431C044655D1D8F8004026462B
:10558000002E45D1002C48D023683146384604EB24
:10559000030900F01BF981453FD121686D1A2946A6
:1055A0003846FFF7A7FF013037D023682B4423602C
:1055B000D8F80030002B38D05A68A2422BD10022F4
:1055C0005A600FE02268521B1FD40B2A17D96119A9
:1055D000A342256018BF5960636808BFC8F800106F
:1055E00062514B60384604F10B0600F029F826F0B2
:1055F0000706231DF21AAED09B1BA350ABE7A342B4
:105600006268DDD1C8F80020ECE723466468ACE7A7
:1056100034467668B4E71346CCE70C233B60384643
:1056200000F00EF897E72560DCE75B60FFDE00BF67
:10563000D00300200148FFF7E8BE00BFCC030020E4
:105640000148FFF7E3BE00BFCC0300208A892DE9A3
:10565000F041054610070C4658D44B68002B05DC7A
:105660000B6C002B02DC0020BDE8F081E66A002E06
:10567000F9D0002312F480522F68216A2B6032D0B7
:10568000606DA3895A0705D56368C01A636B0BB1B7
:10569000236CC01A00230246E66A216A2846B047F6
:1056A000431CA38906D129681D292BD8294A0A4100
:1056B000D60727D400226260D9042269226004D56B
:1056C000421C01D12B6803B96065616B2F60002912
:1056D000C9D004F14403994202D02846FFF7B6FE30
:1056E00000206063C0E701232846B047411CC8D1B1
:1056F0002B68002BC5D01D2B01D0162B01D12F609C
:10570000B1E7A38943F04003A381ADE70F69002F00
:10571000A9D093070E6808BF4B690F6018BF00231C
:10572000A6EB07088B60B8F1000F9CDD216AA66A22
:1057300043463A462846B047002806DCA38943F092
:105740004003A3814FF0FF308EE70744A8EB000829
:10575000E9E700BFFEFFBFDF38B50B6905460C4621
:1057600013B90025284638BD18B1036A0BB9FFF7F5
:105770002DFDB4F90C30002BF3D0626ED00704D4A9
:10578000990502D4A06DFFF740FE28462146FFF799
:105790005DFF636EDA070546E4D4A3899B05E1D477
:1057A000A06DFFF733FEDDE70EB403B5014603AB92
:1057B000054853F8042B0068019300F047F802B045
:1057C0005DF804EB03B070477400002038B5064D57
:1057D0000023044608462B60FCF7B0FF431C02D1AF
:1057E0002B6803B1236038BDC803002008B506202C
:1057F00000F094FB0120FCF729FF9368013B002B8C
:1058000010B4936008DA9469A34201DB0A2903D13A
:105810005DF8044B00F0C4BA1368581C106019708E
:1058200008465DF8044B7047F8B506460F46144627
:10583000D518AC4201D1002007E014F8011B3A460C
:105840003046FFF7DAFF431CF3D1F8BD2DE9F04FE6
:105850000D469DB014469846064618B1036A0BB92A
:10586000FFF7B4FC6B6ED90705D4AB899A0502D457
:10587000A86DFFF7CAFDAB891B0701D52B699BB942
:105880002946304600F0CAFA70B16B6EDC0704D5C9
:105890004FF0FF301DB0BDE8F08FAB899805F7D40D
:1058A000A86DFFF7B3FDF3E70023099320238DF8DC
:1058B0002930CDF80C803023DFF8B0818DF82A3004
:1058C0004FF0010923469A4613F8012B0AB1252A05
:1058D000F9D1BAEB040B0BD05B4622462946304681
:1058E000FFF7A2FF013000F0A980099A5A440992FB
:1058F0009AF80030002B00F0A18000234FF0FF3217
:10590000CDE905230AF1010A049307938DF853307A
:105910001A935446052214F8011B5448FAF758FC10
:10592000049AD8B9D10644BF20238DF85330130709
:1059300044BF2B238DF853309AF800302A2B15D012
:10594000079A544600204FF00A0C214611F8013BFB
:10595000303B092B4DD9B0B1079214E0A0EB0803FE
:1059600009FA03F313430493A246D2E7039B191DDC
:105970001B680391002BBBBF5B4242F002020793FE
:105980000793B8BF049223782E2B0CD163782A2B6F
:1059900034D1039B1A1D1B680392002BB8BF4FF034
:1059A000FF3302340593DFF8D4A021780322504658
:1059B000FAF70EFC38B1049BA0EB0A0040228240AB
:1059C00013430134049314F8011B29488DF828105F
:1059D0000622FAF7FDFB00283FD0264B1BBB039B9A
:1059E000073323F0070308330393099B3B440993D0
:1059F00068E70CFB02320C460120A6E700230134C5
:105A0000059319464FF00A0C204610F8012B303A46
:105A1000092A03D9002BC6D00591C4E70CFB01214C
:105A200004460123F0E703AB00932A46124B04A976
:105A30003046AFF300800746781CD6D16B6ED9078D
:105A400005D4AB899A0502D4A86DFFF7DFFCAB89BA
:105A50005B063FF51DAF09981CE703AB00932A4690
:105A6000054B04A9304600F079F8E4E7EF90000810
:105A7000F99000080000000029580008F59000087F
:105A80002DE9F047164699468A680B69DDF82080B3
:105A90009342B8BF1346336091F8432007460C4643
:105AA0000AB1013333602368990642BF3368023379
:105AB0003360256815F0060506D104F1190AE3687C
:105AC00032689B1AAB4226DC94F84320131E2268EE
:105AD00018BF012392062BD404F1430249463846ED
